{
  "_format": "hh-sol-artifact-1",
  "contractName": "ZKDIDApp",
  "sourceName": "contracts/ZKDIDApp.sol",
  "abi": [
    {
      "inputs": [
        {
          "internalType": "address",
          "name": "_verifierAddress",
          "type": "address"
        }
      ],
      "stateMutability": "nonpayable",
      "type": "constructor"
    },
    {
      "anonymous": false,
      "inputs": [
        {
          "indexed": true,
          "internalType": "address",
          "name": "user",
          "type": "address"
        }
      ],
      "name": "Authorized",
      "type": "event"
    },
    {
      "inputs": [
        {
          "internalType": "uint256[2]",
          "name": "a",
          "type": "uint256[2]"
        },
        {
          "internalType": "uint256[2][2]",
          "name": "b",
          "type": "uint256[2][2]"
        },
        {
          "internalType": "uint256[2]",
          "name": "c",
          "type": "uint256[2]"
        },
        {
          "internalType": "uint256[1]",
          "name": "input",
          "type": "uint256[1]"
        }
      ],
      "name": "authenticate",
      "outputs": [
        {
          "internalType": "bool",
          "name": "",
          "type": "bool"
        }
      ],
      "stateMutability": "nonpayable",
      "type": "function"
    },
    {
      "inputs": [],
      "name": "verifier",
      "outputs": [
        {
          "internalType": "contract Verifier",
          "name": "",
          "type": "address"
        }
      ],
      "stateMutability": "view",
      "type": "function"
    }
  ],
  "bytecode": "0x608060405234801561001057600080fd5b50604051610aa0380380610aa0833981810160405281019061003291906100db565b806000806101000a81548173ffffffffffffffffffffffffffffffffffffffff021916908373ffffffffffffffffffffffffffffffffffffffff16021790555050610108565b600080fd5b600073ffffffffffffffffffffffffffffffffffffffff82169050919050565b60006100a88261007d565b9050919050565b6100b88161009d565b81146100c357600080fd5b50565b6000815190506100d5816100af565b92915050565b6000602082840312156100f1576100f0610078565b5b60006100ff848285016100c6565b91505092915050565b610989806101176000396000f3fe608060405234801561001057600080fd5b50600436106100365760003560e01c80632b7ac3f31461003b578063927f908d14610059575b600080fd5b610043610089565b6040516100509190610261565b60405180910390f35b610073600480360381019061006e919061056a565b6100ad565b60405161008091906105ee565b60405180910390f35b60008054906101000a900473ffffffffffffffffffffffffffffffffffffffff1681565b60008060008054906101000a900473ffffffffffffffffffffffffffffffffffffffff1673ffffffffffffffffffffffffffffffffffffffff166343753b4d878787876040518563ffffffff1660e01b815260040161010f9493929190610836565b602060405180830381865afa15801561012c573d6000803e3d6000fd5b505050506040513d601f19601f8201168201806040525081019061015091906108a9565b905080610192576040517f08c379a000000000000000000000000000000000000000000000000000000000815260040161018990610933565b60405180910390fd5b3373ffffffffffffffffffffffffffffffffffffffff167fdc84e3a4c83602050e3865df792a4e6800211a79ac60db94e703a820ce89292460405160405180910390a26001915050949350505050565b600073ffffffffffffffffffffffffffffffffffffffff82169050919050565b6000819050919050565b600061022761022261021d846101e2565b610202565b6101e2565b9050919050565b60006102398261020c565b9050919050565b600061024b8261022e565b9050919050565b61025b81610240565b82525050565b60006020820190506102766000830184610252565b92915050565b6000604051905090565b600080fd5b600080fd5b6000601f19601f8301169050919050565b7f4e487b7100000000000000000000000000000000000000000000000000000000600052604160045260246000fd5b6102d982610290565b810181811067ffffffffffffffff821117156102f8576102f76102a1565b5b80604052505050565b600061030b61027c565b905061031782826102d0565b919050565b600067ffffffffffffffff821115610337576103366102a1565b5b602082029050919050565b600080fd5b6000819050919050565b61035a81610347565b811461036557600080fd5b50565b60008135905061037781610351565b92915050565b600061039061038b8461031c565b610301565b905080602084028301858111156103aa576103a9610342565b5b835b818110156103d357806103bf8882610368565b8452602084019350506020810190506103ac565b5050509392505050565b600082601f8301126103f2576103f161028b565b5b60026103ff84828561037d565b91505092915050565b600067ffffffffffffffff821115610423576104226102a1565b5b602082029050919050565b600061044161043c84610408565b610301565b9050806040840283018581111561045b5761045a610342565b5b835b81811015610484578061047088826103dd565b84526020840193505060408101905061045d565b5050509392505050565b600082601f8301126104a3576104a261028b565b5b60026104b084828561042e565b91505092915050565b600067ffffffffffffffff8211156104d4576104d36102a1565b5b602082029050919050565b60006104f26104ed846104b9565b610301565b9050806020840283018581111561050c5761050b610342565b5b835b8181101561053557806105218882610368565b84526020840193505060208101905061050e565b5050509392505050565b600082601f8301126105545761055361028b565b5b60016105618482856104df565b91505092915050565b600080600080610120858703121561058557610584610286565b5b6000610593878288016103dd565b94505060406105a48782880161048e565b93505060c06105b5878288016103dd565b9250506101006105c78782880161053f565b91505092959194509250565b60008115159050919050565b6105e8816105d3565b82525050565b600060208201905061060360008301846105df565b92915050565b600060029050919050565b600081905092915050565b6000819050919050565b61063281610347565b82525050565b60006106448383610629565b60208301905092915050565b6000602082019050919050565b61066681610609565b6106708184610614565b925061067b8261061f565b8060005b838110156106ac5781516106938782610638565b965061069e83610650565b92505060018101905061067f565b505050505050565b600060029050919050565b600081905092915050565b6000819050919050565b600081905092915050565b6106e881610609565b6106f281846106d4565b92506106fd8261061f565b8060005b8381101561072e5781516107158782610638565b965061072083610650565b925050600181019050610701565b505050505050565b600061074283836106df565b60408301905092915050565b6000602082019050919050565b610764816106b4565b61076e81846106bf565b9250610779826106ca565b8060005b838110156107aa5781516107918782610736565b965061079c8361074e565b92505060018101905061077d565b505050505050565b600060019050919050565b600081905092915050565b6000819050919050565b6000602082019050919050565b6107e8816107b2565b6107f281846107bd565b92506107fd826107c8565b8060005b8381101561082e5781516108158782610638565b9650610820836107d2565b925050600181019050610801565b505050505050565b60006101208201905061084c600083018761065d565b610859604083018661075b565b61086660c083018561065d565b6108746101008301846107df565b95945050505050565b610886816105d3565b811461089157600080fd5b50565b6000815190506108a38161087d565b92915050565b6000602082840312156108bf576108be610286565b5b60006108cd84828501610894565b91505092915050565b600082825260208201905092915050565b7f496e76616c6964205a4b2070726f6f6600000000000000000000000000000000600082015250565b600061091d6010836108d6565b9150610928826108e7565b602082019050919050565b6000602082019050818103600083015261094c81610910565b905091905056fea2646970667358221220d6b7beea026fab7c9e5656404ef37dd219280b9ac38b7cff01b271c98635ef0464736f6c63430008120033",
  "linkReferences": {},
  "deployedLinkReferences": {}
}