{
  "_format": "hh-sol-artifact-1",
  "contractName": "ZKRoleVerifyApp",
  "sourceName": "contracts/ZKRoleVerifyApp.sol",
  "abi": [
    {
      "inputs": [
        {
          "internalType": "address",
          "name": "_verifier",
          "type": "address"
        }
      ],
      "stateMutability": "nonpayable",
      "type": "constructor"
    },
    {
      "anonymous": false,
      "inputs": [
        {
          "indexed": true,
          "internalType": "address",
          "name": "user",
          "type": "address"
        }
      ],
      "name": "Authorized",
      "type": "event"
    },
    {
      "inputs": [
        {
          "internalType": "uint256[2]",
          "name": "a",
          "type": "uint256[2]"
        },
        {
          "internalType": "uint256[2][2]",
          "name": "b",
          "type": "uint256[2][2]"
        },
        {
          "internalType": "uint256[2]",
          "name": "c",
          "type": "uint256[2]"
        },
        {
          "internalType": "uint256[1]",
          "name": "input",
          "type": "uint256[1]"
        }
      ],
      "name": "authenticate",
      "outputs": [],
      "stateMutability": "nonpayable",
      "type": "function"
    },
    {
      "inputs": [],
      "name": "verifier",
      "outputs": [
        {
          "internalType": "contract IVerifier",
          "name": "",
          "type": "address"
        }
      ],
      "stateMutability": "view",
      "type": "function"
    }
  ],
  "bytecode": "0x608060405234801561001057600080fd5b506040516108b13803806108b1833981810160405281019061003291906100db565b806000806101000a81548173ffffffffffffffffffffffffffffffffffffffff021916908373ffffffffffffffffffffffffffffffffffffffff16021790555050610108565b600080fd5b600073ffffffffffffffffffffffffffffffffffffffff82169050919050565b60006100a88261007d565b9050919050565b6100b88161009d565b81146100c357600080fd5b50565b6000815190506100d5816100af565b92915050565b6000602082840312156100f1576100f0610078565b5b60006100ff848285016100c6565b91505092915050565b61079a806101176000396000f3fe608060405234801561001057600080fd5b50600436106100365760003560e01c80632b7ac3f31461003b578063927f908d14610059575b600080fd5b610043610075565b6040516100509190610372565b60405180910390f35b610073600480360381019061006e91906103fd565b610099565b005b60008054906101000a900473ffffffffffffffffffffffffffffffffffffffff1681565b60008060009054906101000a900473ffffffffffffffffffffffffffffffffffffffff1673ffffffffffffffffffffffffffffffffffffffff166343753b4d868686866040518563ffffffff1660e01b81526004016100fb949392919061054e565b602060405180830381865afa158015610118573d6000803e3d6000fd5b505050506040513d601f19601f8201168201806040525081019061013c91906105cd565b905061017d6040518060400160405280600f81526020017f50726f6f662076657269666965643a000000000000000000000000000000000081525082610207565b806101bd576040517f08c379a00000000000000000000000000000000000000000000000000000000081526004016101b490610657565b60405180910390fd5b3373ffffffffffffffffffffffffffffffffffffffff167fdc84e3a4c83602050e3865df792a4e6800211a79ac60db94e703a820ce89292460405160405180910390a25050505050565b61029f828260405160240161021d929190610705565b6040516020818303038152906040527fc3b55635000000000000000000000000000000000000000000000000000000007bffffffffffffffffffffffffffffffffffffffffffffffffffffffff19166020820180517bffffffffffffffffffffffffffffffffffffffffffffffffffffffff83818316178352505050506102a3565b5050565b6102ba816102b26102bd6102de565b63ffffffff16565b50565b60006a636f6e736f6c652e6c6f679050600080835160208501845afa505050565b6102e9819050919050565b6102f1610735565b565b600073ffffffffffffffffffffffffffffffffffffffff82169050919050565b6000819050919050565b600061033861033361032e846102f3565b610313565b6102f3565b9050919050565b600061034a8261031d565b9050919050565b600061035c8261033f565b9050919050565b61036c81610351565b82525050565b60006020820190506103876000830184610363565b92915050565b600080fd5b600080fd5b6000819050826020600202820111156103b3576103b2610392565b5b92915050565b6000819050826040600202820111156103d5576103d4610392565b5b92915050565b6000819050826020600102820111156103f7576103f6610392565b5b92915050565b60008060008061012085870312156104185761041761038d565b5b600061042687828801610397565b9450506040610437878288016103b9565b93505060c061044887828801610397565b92505061010061045a878288016103db565b91505092959194509250565b82818337505050565b61047b60408383610466565b5050565b600060029050919050565b600081905092915050565b6000819050919050565b6104ab60408383610466565b5050565b60006104bb838361049f565b60408301905092915050565b600082905092915050565b6000604082019050919050565b6104e88161047f565b6104f2818461048a565b92506104fd82610495565b8060005b838110156105365761051382846104c7565b61051d87826104af565b9650610528836104d2565b925050600181019050610501565b505050505050565b61054a60208383610466565b5050565b600061012082019050610564600083018761046f565b61057160408301866104df565b61057e60c083018561046f565b61058c61010083018461053e565b95945050505050565b60008115159050919050565b6105aa81610595565b81146105b557600080fd5b50565b6000815190506105c7816105a1565b92915050565b6000602082840312156105e3576105e261038d565b5b60006105f1848285016105b8565b91505092915050565b600082825260208201905092915050565b7f496e76616c6964205a4b2070726f6f6600000000000000000000000000000000600082015250565b60006106416010836105fa565b915061064c8261060b565b602082019050919050565b6000602082019050818103600083015261067081610634565b9050919050565b600081519050919050565b60005b838110156106a0578082015181840152602081019050610685565b60008484015250505050565b6000601f19601f8301169050919050565b60006106c882610677565b6106d281856105fa565b93506106e2818560208601610682565b6106eb816106ac565b840191505092915050565b6106ff81610595565b82525050565b6000604082019050818103600083015261071f81856106bd565b905061072e60208301846106f6565b9392505050565b7f4e487b7100000000000000000000000000000000000000000000000000000000600052605160045260246000fdfea2646970667358221220bfe8b773f97bfb7884391ca70e733a0fc6da5a122ed69de7740f9fb09880b78d64736f6c63430008140033",
  "linkReferences": {},
  "deployedLinkReferences": {}
}